S01400004A6F79737469636B546573742E7372656320
S113000045C0000060C000005EC000005CC000008D
S11300105AC0000058C0000056C0000054C0000080
S113002052C0000050C000004EC000004CC0000090
S11300304AC000007EC0000046C0000044C000006A
S113004042C0000040C000003EC000003CC00000B0
S11300503AC0000038C0000036C0000034C00000C0
S113006032C0000030C000002EC000002CC00000D0
S11300702AC0000028C0000026C0000024C00000E0
S113008022C0000020C000001EC0000011241FBEBA
S1130090CFEFD0E4DEBFCDBF11E0A0E0B1E0E0E6F9
S11300A0F6E000E00BBF02C007900D92A630B10746
S11300B0D9F721E0A6E0B1E001C01D92A531B20755
S11300C0E1F771D2CBC29CCF60930201709303011C
S11300D080930401909305016093060170930701D6
S11300E0809308019093090108958BE08093810027
S11300F08DE790E0909389008093880082E080935C
S11301006F001092850010928400809102019091FA
S11301100301A0910401B09105018093060190931D
S11301200701A0930801B09309018FB780688FBFBE
S113013008951F920F920FB60F9211248F939F93DD
S1130140AF93BF938091060190910701A09108019C
S1130150B09109010197A109B10980930601909317
S11301600701A0930801B0930901892B8A2B8B2BDB
S113017099F481E080930A01809102019091030136
S1130180A0910401B09105018093060190930701A9
S1130190A0930801B0930901BF91AF919F918F91F2
S11301A00F900FBE0F901F9018958FEF84B917B85A
S11301B0289A0895181619066CF420E030E0EFE947
S11301C0FFE03197F1F700C000002F5F3F4F821727
S11301D09307A9F708954F925F926F927F928F923F
S11301E09F92AF92BF92CF92DF92EF92FF922B0138
S11301F03C01672B682B692B49F1E0E1F0E0C12C4D
S1130200D12C7601812C912C5401689497F8C8283C
S1130210D928EA28FB28A7019601C701B601F6D11F
S1130220461657066806790650F4D501C401809530
S11302309095A095B095C822D922EA22FB22B694C3
S1130240A79497948794319711F703C0C12CD12CAC
S11302507601C701B601FF90EF90DF90CF90BF9079
S1130260AF909F908F907F906F905F904F90089584
S113027080E58CBD8DB581608DBD08958EBD0DB4B6
S113028007FEFDCF8EB508952998F8DF299A0895C1
S1130290CF93C82F892FF2DF8C2FF0DFCF910895F1
S11302A00F931F93CF93DF93082F192FEB018CE249
S11302B0EBDF209759F0912F9EBD0DB407FEFDCFC3
S11302C00EBD0DB407FEFDCF2197B1F7DF91CF919D
S11302D01F910F910895289881E090E06BDF289A90
S11302E086E990E067CF0895F6DF81E1CDDF86E906
S11302F090E060DF8AE3C8DF85E0C0DF89E2C4CF35
S113030008950F931F93CF93DF93082FD62F142FA5
S1130310C22F8AE2B9DF802F90E0BADF812F90E00C
S1130320B7DF8BE2B1DF8D2F90E0B2DF8C2F90E04E
S1130330AFDFDF91CF911F910F9108952FE94FE720
S113034060E080E0DEDF8CE29FDF80E090EA1EBCAC
S11303500DB407FEFDCF0197D1F708950F931F93B6
S1130360CF93DF93D62FC42F8901242F482FC9DFC1
S1130370CD1BCF5F6C2F70E0C80192DFDF91CF916E
S11303801F910F9108954F925F926F927F929F9267
S1130390AF92BF92CF92DF92EF92FF920F931F938F
S11303A0CF93DF93E62E6901A42EB12CAA9C2001E1
S11303B0AB9C500C500C1124052C000C66087708DB
S11303C0F82ED82F00E010E0009FC001019F900D8F
S11303D0900D1124092E000CAA0BBB0BA301920152
S11303E0281B390B4A0B5B0BCA01B901F4DE9E2CA6
S11303F0961AC62FCE0D96014C2F692D8D2FAEDF88
S113040096014C2F692D8F2DA9DF0F5F1F4FDF5FE2
S1130410FA94A016B106C4F6DF91CF911F910F9103
S1130420FF90EF90DF90CF90BF90AF909F907F9020
S11304306F905F904F900895CF93843B910541F066
S11304408E3021E0920731F08A35910529F406C0F7
S1130450C0EC05C0C0EA03C0C0E001C0C0E686E34A
S113046013DF8C2F0BDFCF91089580E480937C0001
S113047087E880937A000895ECE7F0E09081987F14
S11304808770892B8083EAE7F0E080818064808331
S1130490808186FDFDCFEAE7F0E080818061808382
S11304A0809178009091790008959C0190910001C9
S11304B01216130624F4973041F0915009C03323E7
S11304C03CF4992321F09F5F03C090E001C097E0C2
S11304D09093000108959C0190910101332324F429
S11304E0943049F091500AC0121613063CF4992333
S11304F021F09F5F03C090E001C094E0909301015C
S1130500089582E0B9DF92509093100180930F0117
S113051020910E01223019F0233059F014C09C01AF
S113052028503F4F233F314098F023E020930E01A1
S11305300EC09C0128503F4F233F314040F482E0DD
S113054080930E0105C082E080930E0101C0C3DFD9
S113055080E090E0089583E08FDF925090930D0146
S113056080930C0120910B01222319F0213059F0C2
S113057013C09C0128503F4F233F314088F021E0B5
S113058020930B010CC09C0128503F4F233F314066
S113059030F410920B0104C010920B0101C085DFEE
S11305A080E090E0089583E881B98CE782B96AE03D
S11305B070E080E090E088DD98DD57DFF6DD58DEFE
S11305C093DEBCDE8AE590E037DF10920B0182E017
S11305D080930E0196DFBFDF20E038EF4FE060919B
S11305E0000180910101CFDE84E690E0E3DD20E0AC
S11305F030E04FE06091000180910101C4DE809100
S11306000A018823E1F310920A01E4CFDB018F93FE
S11306109F930BD0BF91AF91A29F800D911DA39F7B
S1130620900DB29F900D1124089509D0A59F900DAF
S1130630B49F900DA49F800D911D11240895A29F35
S1130640B001B39FC001A39F700D811D1124911DA2
S1130650B29F700D811D1124911D0895F894FFCF50
S109066046460100000003
S9030000FC
