:1000000045C0000060C000005EC000005CC0000091
:100010005AC0000058C0000056C0000054C0000084
:1000200052C0000050C000004EC000004CC0000094
:100030004AC000007EC0000046C0000044C000006E
:1000400042C0000040C000003EC000003CC00000B4
:100050003AC0000038C0000036C0000034C00000C4
:1000600032C0000030C000002EC000002CC00000D4
:100070002AC0000028C0000026C0000024C00000E4
:1000800022C0000020C000001EC0000011241FBEBE
:10009000CFEFD0E4DEBFCDBF11E0A0E0B1E0E2E6FB
:1000A000F8E000E00BBF02C007900D92A031B1074D
:1000B000D9F721E0A0E1B1E001C01D92A235B2075D
:1000C000E1F7EDD2CCC39CCF6093020170930301A2
:1000D0008093040190930501609347017093480158
:1000E0008093490190934A0108958BE080938100A9
:1000F0008DE790E0909389008093880082E0809360
:100100006F001092850010928400809102019091FE
:100110000301A0910401B0910501809347019093E0
:100120004801A0934901B0934A018FB780688FBFFF
:1001300008951F920F920FB60F9211248F939F93E1
:10014000AF93BF938091470190914801A0914901DD
:10015000B0914A010197A109B10980934701909399
:100160004801A0934901B0934A01892B8A2B8B2B1C
:1001700099F481E080934B018091020190910301F9
:10018000A0910401B091050180934701909348012B
:10019000A0934901B0934A01BF91AF919F918F9174
:1001A0000F900FBE0F901F9018958FEF84B917B85E
:1001B000289A0895181619066CF420E030E0EFE94B
:1001C000FFE03197F1F700C000002F5F3F4F82172B
:1001D0009307A9F708954F925F926F927F928F9243
:1001E0009F92AF92BF92CF92DF92EF92FF922B013C
:1001F0003C01672B682B692B49F1E0E1F0E0C12C51
:10020000D12C7601812C912C5401689497F8C82840
:10021000D928EA28FB28A7019601C701B601F7D221
:10022000461657066806790650F4D501C401809534
:100230009095A095B095C822D922EA22FB22B694C7
:10024000A79497948794319711F703C0C12CD12CB0
:100250007601C701B601FF90EF90DF90CF90BF907D
:10026000AF909F908F907F906F905F904F90089588
:1002700080E58CBD8DB581608DBD08958EBD0DB4BA
:1002800007FEFDCF8EB508952998F8DF299A0895C5
:10029000CF93C82F892FF2DF8C2FF0DFCF910895F5
:1002A0000F931F93CF93DF93082F192FEB018CE24D
:1002B000EBDF209759F0912F9EBD0DB407FEFDCFC7
:1002C0000EBD0DB407FEFDCF2197B1F7DF91CF91A1
:1002D0001F910F910895289881E090E06BDF289A94
:1002E00086E990E067CF0895F6DF81E1CDDF86E90A
:1002F00090E060DF8AE3C8DF85E0C0DF89E2C4CF39
:1003000008950F931F93CF93DF93082FD62F142FA9
:10031000C22F8AE2B9DF802F90E0BADF812F90E010
:10032000B7DF8BE2B1DF8D2F90E0B2DF8C2F90E052
:10033000AFDFDF91CF911F910F9108952FE94FE724
:1003400060E080E0DEDF8CE29FDF80E090EA1EBCB0
:100350000DB407FEFDCF0197D1F708950F931F93BA
:10036000CF93DF93D62FC42F8901242F482FC9DFC5
:10037000CD1BCF5F6C2F70E0C80192DFDF91CF9172
:100380001F910F9108954F925F926F927F929F926B
:10039000AF92BF92CF92DF92EF92FF920F931F9393
:1003A000CF93DF93E62E6901A42EB12CAA9C2001E5
:1003B000AB9C500C500C1124052C000C66087708DF
:1003C000F82ED82F00E010E0009FC001019F900D93
:1003D000900D1124092E000CAA0BBB0BA301920156
:1003E000281B390B4A0B5B0BCA01B901F4DE9E2CAA
:1003F000961AC62FCE0D96014C2F692D8D2FAEDF8C
:1004000096014C2F692D8F2DA9DF0F5F1F4FDF5FE6
:10041000FA94A016B106C4F6DF91CF911F910F9107
:10042000FF90EF90DF90CF90BF90AF909F907F9024
:100430006F905F904F9008952FE130E04AE0609117
:100440000001809101019FDF84E690E0B3DE20E0AF
:1004500030E04AE0609100018091010194DF80E08A
:1004600090E0089520E034E048E069E684E68BDF20
:1004700020E034E048E064E182E385DF20E034E01E
:1004800048E069E682E37FDF20E034E048E064E1B1
:1004900084E679DF80E090E00895009719F00197F5
:1004A00031F10AC08091010185508A3128F4809190
:1004B00000018A508531D8F020E038EF47E064E150
:1004C00084E161DF20E038EF47E069E684E15BDF4B
:1004D00020E038EF47E064E182E855DF20E038EFC4
:1004E00047E069E682E84FDF80E090E0089520E091
:1004F00030E047E064E184E146DF81E090E0089588
:10050000CF93843B910541F08E3021E0920731F08A
:100510008A35910529F406C0C0EC05C0C0EA03C0C5
:10052000C0E001C0C0E686E3AFDE8C2FA7DECF912E
:10053000089580E480937C0087E880937A00089592
:10054000ECE7F0E09081987F8770892B8083EAE761
:10055000F0E0808180648083808186FDFDCFEAE7C2
:10056000F0E08081806180838091780090917900B3
:1005700008959C01909100011216130634F49A30EC
:1005800078F0973051F095500BC033234CF49138EC
:1005900038F4992321F09B5F03C090E001C097E0FD
:1005A000909300010895CF93DF93EC0183E0C8DFBF
:1005B000925090934D0180934C01209719F0219710
:1005C00069F018C051E040E09C0128503F4F233FA4
:1005D000314008F450E0C52FD42F0EC051E040E068
:1005E0009C0128503F4F233F314008F450E0C52F75
:1005F000D42F02C0C0E0D0E0C130D10509F4B9DF8A
:10060000CE01DF91CF9108959C0190910101332398
:1006100034F49A3080F0943059F095500CC0121692
:1006200013064CF4913A38F4992321F09B5F03C0F0
:1006300090E001C094E0909301010895CF93DF937F
:10064000EC0182E07DDF925090934F0180934E0148
:10065000209719F0219769F018C051E040E09C0103
:1006600028503F4F233F314008F450E0C52FD42F8E
:100670000EC051E040E09C0128503F4F233F3140E5
:1006800008F450E0C52FD42F02C0C0E0D0E0C13044
:10069000D10509F4B9DFCE01DF91CF910895CF9351
:1006A000DF93CDB7DEB72A970FB6F894DEBF0FBE43
:1006B000CDBF83E881B98CE782B98AE0E6E0F1E05A
:1006C000DE01119601900D928A95E1F7ECE3F1E0DD
:1006D0002FEF208381E090E0A0E0B0E0818392835F
:1006E000A383B48385839683A783B0874EE153E0C9
:1006F00052874187E1E3F1E0208381839283A383E2
:10070000B48385839683A783B08743ED52E05287F5
:100710004187E6E2F1E0208381839283A383B4835F
:1007200085839683A783B0874CE152E05287418747
:10073000EBE1F1E0208381839283A383B4838583FB
:100740009683A783B08742E352E052874187E0E176
:10075000F1E0208381839283A383B483858396838E
:10076000A783B0878DE492E09287818762E370E08F
:1007700080E090E0A9DCB9DCDCDE17DD79DDB4DDFA
:10078000DDDD8AE590E0BCDE7E018BE0E80EF11C49
:10079000DE0111966D01F601019111916F01D801F1
:1007A00015964D915D916D917C91189711968D9153
:1007B0009D910D90BC91A02D481759076A077B07A2
:1007C00081F4F80180810184F285E02D082E000C6F
:1007D000990B0995D8018C93F8011582168217821E
:1007E0001086F80185819681A781B0850196A11DAB
:1007F000B11D85839683A783B087EC14FD0459F659
:1008000080914B018823E1F310924B01C1CFDB01B2
:100810008F939F930BD0BF91AF91A29F800D911D9D
:10082000A39F900DB29F900D1124089509D0A59F0C
:10083000900DB49F900DA49F800D911D11240895DB
:10084000A29FB001B39FC001A39F700D811D112411
:10085000911DB29F700D811D1124911D0895F89472
:02086000FFCFC8
:100862004150010000003C01310126011B01100131
:00000001FF
