:1000000035C1000050C100004EC100004CC10000CD
:100010004AC1000048C1000046C1000044C10000C0
:1000200042C1000040C100003EC100003CC10000D0
:100030003AC1000038C1000036C1000034C10000E0
:1000400032C1000030C100002EC100002CC10000F0
:100050002AC1000028C1000026C1000024C1000000
:1000600022C1000020C100001EC100001CC1000010
:100070001AC1000018C1000016C1000014C1000020
:1000800012C1000010C100000EC1000000000000FD
:100090000000005F00000007000700147F147F14B9
:1000A000242A7F2A122313086462364955225000FD
:1000B00005030000001C2241000041221C00082A08
:1000C0001C2A0808083E08080050300000080808EC
:1000D0000808006060000020100804023E514945F5
:1000E0003E00427F400042615149462141454B312B
:1000F0001814127F1027454545393C4A49493001BB
:10010000710905033649494936064949291E003611
:100110003600000056360000000814224114141462
:100120001414412214080002015109063249794190
:100130003E7E1111117E7F494949363E414141229F
:100140007F4141221C7F494949417F090901013E04
:10015000414151327F0808087F00417F4100204023
:10016000413F017F081422417F404040407F02040C
:10017000027F7F0408107F3E4141413E7F0909090B
:10018000063E4151215E7F091929464649494931B8
:1001900001017F01013F4040403F1F2040201F7F61
:1001A0002018207F6314081463030478040361514A
:1001B00049454300007F4141020408102041417F2E
:1001C00000000402010204404040404000010204DB
:1001D0000020545454787F484444383844444420E0
:1001E000384444487F3854545418087E09010208A2
:1001F0001454543C7F0804047800447D400020409F
:10020000443D00007F10284400417F40007C0418DA
:1002100004787C0804047838444444387C1414146A
:1002200008081414187C7C0804040848545454200A
:10023000043F4440203C4040207C1C2040201C3C8B
:100240004030403C44281028440C5050503C4464FA
:10025000544C44000836410000007F000000413645
:10026000080008082A1C08081C2A080811241FBEB8
:10027000CFEFD0E4DEBFCDBF11E0A0E0B1E0E4E617
:10028000FDE000E00BBF02C007900D92AE30B10759
:10029000D9F721E0AEE0B1E001C01D92A031B20774
:1002A000E1F7D7D45DC5ACCE8FEF84B917B8289AE3
:1002B0000895181619066CF420E030E0EFE9FFE02D
:1002C0003197F1F700C000002F5F3F4F821793076F
:1002D000A9F70895CF93C82F882351F02D9A86E966
:1002E00090E0E7DF2D9886E990E0E3DFC150B1F7B9
:1002F000CF91089580E58CBD8DB581608DBD089549
:100300008EBD0DB407FEFDCF8EB508952998F8DF98
:10031000299A0895CF93C82F892FF2DF8C2FF0DF11
:10032000CF9108950F931F93CF93DF93082F192F29
:10033000EB018CE2EBDF209759F0912F9EBD0DB4BD
:1003400007FEFDCF0EBD0DB407FEFDCF2197B1F71F
:10035000DF91CF911F910F910895289881E090E04F
:10036000A8DF289A86E990E0A4CF0895F6DF81E11E
:10037000CDDF86E990E09DDF8AE3C8DF85E0C0DF5E
:1003800089E2C4CF08950F931F93CF93DF93082F73
:10039000D62F142FC22F8AE2B9DF802F90E0BADF68
:1003A000812F90E0B7DF8BE2B1DF8D2F90E0B2DFDD
:1003B0008C2F90E0AFDFDF91CF911F910F910895C7
:1003C0002FE94FE760E080E0DEDF8CE29FDF80E036
:1003D00090EA1EBC0DB407FEFDCF0197D1F708953A
:1003E000CF93DF93EA01262F482FCDDF61E070E045
:1003F000CE0198DFDF91CF9108950F931F93CF9394
:10040000DF93D82FC62F642F8901242F4C2FBBDFF9
:10041000CD1BCF5F6C2F70E0C80184DFDF91CF91DF
:100420001F910F9108952F923F924F925F926F927A
:100430007F928F929F92AF92BF92CF92DF92EF9274
:10044000FF920F931F93CF93DF9300D000D000D083
:10045000CDB7DEB79E838D837B016A013C832B83FE
:100460001A830983CA012D813E81821B930B1C01D3
:1004700022F422243324281A390A8D819E818C1576
:100480009D0524F044244A94542C03C044244394EE
:10049000512C8B819C818E199F098C0122F400279D
:1004A0001127081B190B2B813C81E216F30624F05F
:1004B00066246A94762C03C066246394712C02151A
:1004C00013057CF088249924801A910A1AF43FEFCE
:1004D000831A930A95948794AA24BB24A218B3087C
:1004E0000AC0410133201CF48FEF881A980A9594B2
:1004F0008794F2CF4C0149815A816E2D8D8170DF36
:100500002D813E812C153D0529F48B819C81E816B7
:10051000F906B9F0A814B90454F4C401801B910B76
:100520002D813E81240D351D3E832D8301C0C401E4
:1005300080169106FCF64C01820C931CE60CF71C0D
:10054000DACF26960FB6F894DEBF0FBECDBFDF918F
:10055000CF911F910F91FF90EF90DF90CF90BF90C0
:10056000AF909F908F907F906F905F904F903F9053
:100570002F9008952F923F924F925F926F927F92A9
:100580008F929F92AF92BF92CF92DF92EF92FF92A3
:100590000F931F93CF93DF93CDB7DEB768970FB656
:1005A000F894DEBF0FBECDBF888F6F8B1A8309838F
:1005B000CA0199230CF40196AC01559547955E83C9
:1005C0004D83C90199230CF40196DC01B595A795DB
:1005D000BA8BA98B2D813E81032E000C440B550B49
:1005E0002B8B3C8B4D8B5E8BCA01B90164D36B01A5
:1005F0007C01DC01CB01880F991FAA1FBB1F8987D3
:100600009A87AB87BC87A989BA894D01BB0FAA0815
:10061000BB08A5019401C501B4014DD39B01AC01F8
:10062000220F331F441F551F2D873E874F87588B3E
:10063000A7019601C501B4013ED36B017C01298558
:100640003A854B855C85C501B40135D32B013C014E
:1006500099230CF45AC0388C132D49895A8958872C
:100660004F83812C912C54011C821B82232C4981A5
:100670005A810F818F89080F602F812FB1DE498148
:100680005A819F89AF819A1B988F692F812FA8DE8D
:1006900049815A81602F832DA3DE49815A81688D5B
:1006A000832D9EDEEB81FC813196AB81BC812D8553
:1006B0003E854F8558892BD3C61AD70AE80AF90A0E
:1006C000820E931EA41EB51EFF20A4F42F81388530
:1006D0002150310938872F83D90129853A854B85E7
:1006E0005C8515D3C60ED71EE81EF91E421A530AA2
:1006F000640A750A1F5F3A94FC83EB83481459041B
:100700006A047B040CF0B3CF288E49895A89449F30
:10071000C001459F900D900D1124AD81BE818A9F2F
:1007200060018B9FD00C9A9FD00C11240D2C000CD3
:10073000EE08FF082B893C894D895E896D857E8591
:100740008F859889B8D22B013C0199230CF450C0B5
:100750001F891B83812C912C5401212C312C498120
:100760005A816B810D81388D030F802F39DE4981CD
:100770005A81612F802F34DE49815A816B81088D27
:100780008D81081B802F2CDE49815A81612F802F9B
:1007900027DEF1013196D10129853A854B855C85AB
:1007A000B6D2C61AD70AE80AF90A820E931EA41E08
:1007B000B51EFF2094F4AD81BE811197BE83AD8339
:1007C0002D853E854F855889A2D2C60ED71EE81EBC
:1007D000F91E421A530A640A750ABB81BF5FBB83C4
:1007E00011501F01481459046A047B040CF0B7CF60
:1007F00068960FB6F894DEBF0FBECDBFDF91CF91E4
:100800001F910F91FF90EF90DF90CF90BF90AF902E
:100810009F908F907F906F905F904F903F902F9020
:1008200008952F923F924F925F926F927F928F9294
:100830009F92AF92BF92CF92DF92EF92FF920F936F
:100840001F93CF93DF93CDB7DEB72F970FB6F894F2
:10085000DEBF0FBECDBFE82F6E871E830D83CA019A
:1008600099230CF401966C01D594C794C90199237E
:100870000CF401969C013595279539872887CC9CE7
:10088000C001CD9C900D900D11249C01990F440B3B
:10089000550B2A873B874C875D8748855985449F40
:1008A000C001459F900D900D11249C01990F440BA0
:1008B000550B29833A834B835C832A853B854C8582
:1008C0005D8569817A818B819C81F5D12B013C0109
:1008D000EF836E2F6C0D2D813E814E858E2F8C19EE
:1008E0008CDD48855985141615060CF092C00E85CE
:1008F0000F5F1E851150E12CF12C22242394312C02
:10090000F60102C0EE85FF8551E0E51AF108CF013E
:100910008E199F099F878E87181619060CF058C0EC
:100920002A853B854C855D856101032C000CEE0812
:10093000FF08C701B601BFD19B01AC01C701B601D9
:10094000BAD14B015C0129813A814B815C818E8552
:100950009F856C01990FEE08FF08C701B601ABD166
:100960009B01AC01C701B601A6D1DC01CB01880D0A
:10097000991DAA1DBB1D481659066A067B06FCF088
:1009800027C029813A814B815C818E859F856C01CE
:10099000990FEE08FF08C701B6018DD19B01AC018C
:1009A000C701B60188D1DC01CB01880D991DAA1DB4
:1009B000BB1D481659066A067B0654F400C04E85D6
:1009C0005F85415051095F874E87452BD1F600C0A6
:1009D0007F012E853F85E21AF30A2D813E81402F4B
:1009E000CF805E85C50E6C2DDF80D51A8D2D05DD7F
:1009F0002D813E81412F6C2D8D2DFFDC8FEF281A2C
:100A0000380A0F5F115028853985221533050CF0FF
:100A100079CF2F960FB6F894DEBF0FBECDBFDF9112
:100A2000CF911F910F91FF90EF90DF90CF90BF90EB
:100A3000AF909F908F907F906F905F904F903F907E
:100A40002F90089580910E018F5F80930E01853164
:100A500038F080910F018F5F80930F0110920E018B
:100A600080910F01843110F010920F0108959F9230
:100A7000AF92BF92CF92DF92EF92FF920F931F93AC
:100A8000CF93DF93C82F862F642FB22EC32E26E07C
:100A9000240F44E0480F77DC8CE238DC8C2F90E0A8
:100AA00080977C01EE0CFF1CEE0CFF1C8E0D9F1D31
:100AB0009C0124573F4F79010F2EF7E0DF2EF02DD8
:100AC000D1E0912CA12C13C0F80184918D2319F051
:100AD0008B2D9C2D02C0892D9A2D1CDCC1500F5FDF
:100AE0001F4FC111F1CFDD0FDA94DD2019F087011E
:100AF000C5E0EACFDF91CF911F910F91FF90EF906A
:100B0000DF90CF90BF90AF909F9008959B01409150
:100B10000F01440F440F440F90910E01692F660F8F
:100B2000960F692F660FA3DF8DCF08950F931F9344
:100B3000CF93DF93EC018881882339F08B012196D4
:100B4000B801E4DF89918111FBCFDF91CF911F9133
:100B50000F9108950F931F93CF93DF9331DCC0E083
:100B6000D0E000EE1FEF20E030E0AE0160E570E085
:100B700080E490E058DC2296C038D10591F7C0E0BF
:100B8000D0E00FEF17E09E014FE750E060E570E026
:100B900080E490E048DC2296C03AD10591F7CFE797
:100BA000D0E000EE1FEF2FE930E0AE0160E570E02D
:100BB00080E490E038DC2297CF3F8FEFD80789F7A9
:100BC000CFE9D0E00FEF17E09E0140E050E060E594
:100BD00070E080E490E027DC2297CF3F8FEFD807CA
:100BE00089F780ED97E065DBDF91CF911F910F9141
:100BF0000895EF92FF920F931F93CF93DF93E0DB63
:100C0000C4EAD1E00F2EF5E1EF2EF12CF02D00E635
:100C100010E0CE01B7015ED0462F440F440F440FC1
:100C2000E82FEE0F8E0FE82FEE0FCE01B80152D055
:100C30002FEF37E06E2F805E1ADF219751F780ED9E
:100C400097E037DBDF91CF911F910F91FF90EF90ED
:100C500008950F931F9328DB81E03CDB4BDB86DBA1
:100C6000C8DF78DF00E010E022E330E044E650E047
:100C70006BE470E08CE390E0D4DD00EE17E022E35B
:100C800030E044E650E06BE470E08CE390E072DC2E
:100C900084E080930E0189E080930F0160EE7FEF86
:100CA00080E091E043DF1CBC83E014DB80E090E057
:100CB0001F910F910895DB018F939F931ED0BF91D9
:100CC000AF91A29F800D911DA39F900DB29F900D9B
:100CD0001124089597FB072E16F4009406D077FD93
:100CE00008D01BD007FC05D03EF4909581959F4F0E
:100CF0000895709561957F4F089523D0A59F900D1D
:100D0000B49F900DA49F800D911D11240895B7FFED
:100D1000F4CFF3DF821B930B0895AA1BBB1B51E199
:100D200007C0AA1FBB1FA617B70710F0A61BB70B5B
:100D3000881F991F5A95A9F780959095BC01CD0100
:100D40000895A29FB001B39FC001A39F700D811DA4
:100D50001124911DB29F700D811D1124911D0895C4
:040D6000F894FFCF35
:0E0D640048656C6C6F2C20576F726C64210018
:00000001FF
